{
  "_format": "hh-sol-artifact-1",
  "contractName": "Registry",
  "sourceName": "contracts/Registry.sol",
  "abi": [
    {
      "inputs": [
        {
          "internalType": "address",
          "name": "_oracleAddress",
          "type": "address"
        }
      ],
      "stateMutability": "nonpayable",
      "type": "constructor"
    },
    {
      "anonymous": false,
      "inputs": [
        {
          "indexed": false,
          "internalType": "uint256",
          "name": "oldSupply",
          "type": "uint256"
        },
        {
          "indexed": false,
          "internalType": "uint256",
          "name": "newSupply",
          "type": "uint256"
        },
        {
          "indexed": true,
          "internalType": "address",
          "name": "updater",
          "type": "address"
        }
      ],
      "name": "GpuSupplyUpdated",
      "type": "event"
    },
    {
      "anonymous": false,
      "inputs": [
        {
          "indexed": true,
          "internalType": "address",
          "name": "oldOracle",
          "type": "address"
        },
        {
          "indexed": true,
          "internalType": "address",
          "name": "newOracle",
          "type": "address"
        }
      ],
      "name": "OracleTransferred",
      "type": "event"
    },
    {
      "inputs": [],
      "name": "oracleAddress",
      "outputs": [
        {
          "internalType": "address",
          "name": "",
          "type": "address"
        }
      ],
      "stateMutability": "view",
      "type": "function"
    },
    {
      "inputs": [],
      "name": "totalGpuSupply",
      "outputs": [
        {
          "internalType": "uint256",
          "name": "",
          "type": "uint256"
        }
      ],
      "stateMutability": "view",
      "type": "function"
    },
    {
      "inputs": [
        {
          "internalType": "address",
          "name": "_newOracleAddress",
          "type": "address"
        }
      ],
      "name": "transferOracleRole",
      "outputs": [],
      "stateMutability": "nonpayable",
      "type": "function"
    },
    {
      "inputs": [
        {
          "internalType": "uint256",
          "name": "_newSupply",
          "type": "uint256"
        }
      ],
      "name": "updateGpuSupply",
      "outputs": [],
      "stateMutability": "nonpayable",
      "type": "function"
    }
  ],
  "bytecode": "0x6080604052348015600f57600080fd5b5060405161042d38038061042d833981016040819052602c9160ad565b6001600160a01b03811660855760405162461bcd60e51b815260206004820152601d60248201527f4f7261636c6520616464726573732063616e6e6f74206265207a65726f000000604482015260640160405180910390fd5b600180546001600160a01b0319166001600160a01b03929092169190911790556000805560db565b60006020828403121560be57600080fd5b81516001600160a01b038116811460d457600080fd5b9392505050565b610343806100ea6000396000f3fe608060405234801561001057600080fd5b506004361061004c5760003560e01c80630a55f076146100515780638801b9b81461006d578063a89ae4ba14610082578063f74f4244146100ad575b600080fd5b61005a60005481565b6040519081526020015b60405180910390f35b61008061007b36600461027e565b6100c0565b005b600154610095906001600160a01b031681565b6040516001600160a01b039091168152602001610064565b6100806100bb3660046102ae565b61020d565b6001546001600160a01b031633146100f35760405162461bcd60e51b81526004016100ea906102c7565b60405180910390fd5b6001600160a01b0381166101535760405162461bcd60e51b815260206004820152602160248201527f4e6577204f7261636c6520616464726573732063616e6e6f74206265207a65726044820152606f60f81b60648201526084016100ea565b6001546001600160a01b03908116908216036101c15760405162461bcd60e51b815260206004820152602760248201527f4e6577204f7261636c652063616e6e6f74206265207468652063757272656e74604482015266204f7261636c6560c81b60648201526084016100ea565b600180546001600160a01b0319166001600160a01b03831690811790915560405133907f9b0948b943e24ff3413cb400b2eeae4337138739aaf31759dc6e813e8076fbc390600090a350565b6001546001600160a01b031633146102375760405162461bcd60e51b81526004016100ea906102c7565b6000805490829055604080518281526020810184905233917f7a2e1ea0ae3f5915cdd69057f7c8b83f46d2b7bd1ba982c8669362295cbf19c7910160405180910390a25050565b60006020828403121561029057600080fd5b81356001600160a01b03811681146102a757600080fd5b9392505050565b6000602082840312156102c057600080fd5b5035919050565b60208082526026908201527f4f6e6c7920746865204f7261636c652063616e2063616c6c20746869732066756040820152653731ba34b7b760d11b60608201526080019056fea2646970667358221220f86c91f3906e6221df6e698ad998e7d67e7df086e10dd9930fa541bf508c7ae064736f6c634300081c0033",
  "linkReferences": {},
  "deployedLinkReferences": {}
}